{
  "transactions": [
    {
      "hash": "0xe02ba52d356d178253caeafdd6d0dd7f0e17c7a4dc948acf452f323d6b3a63a4",
      "transactionType": "CREATE",
      "contractName": "BuildingS",
      "contractAddress": "0xdeE97420D143b40433074dC15a08e86820f67fE2",
      "function": null,
      "arguments": null,
      "transaction": {
        "type": "0x02",
        "from": "0x6117aac3b7e3d53f0a3009e70f5ecf73f7c9af02",
        "gas": "0x349f0",
        "value": "0x0",
        "data": "0x6080604052600080546001600160a81b031916738af6f27cb529f2e4e7a57e68f4a9fe472e24f7e617905534801561003657600080fd5b506101a0806100466000396000f3fe608060405234801561001057600080fd5b50600436106100415760003560e01c80634dfb2c1c146100465780635f9a4bca1461005b578063b0cb4ff014610083575b600080fd5b610059610054366004610151565b6100ae565b005b61006e610069366004610151565b61010f565b60405190151581526020015b60405180910390f35b600054610096906001600160a01b031681565b6040516001600160a01b03909116815260200161007a565b600054604051633b669c4d60e21b8152600481018390526001600160a01b039091169063ed9a713490602401600060405180830381600087803b1580156100f457600080fd5b505af1158015610108573d6000803e3d6000fd5b5050505050565b60008054600160a01b900460ff161515810361013d5750506000805460ff60a01b1916600160a01b17815590565b50506000805460ff60a01b19169055600190565b60006020828403121561016357600080fd5b503591905056fea264697066735822122064b0d20796a09406449ff214315ca818fc1c1b9327d95f94b659a197a986b21164736f6c63430008140033",
        "nonce": "0x75",
        "accessList": []
      },
      "additionalContracts": [],
      "isFixedGasLimit": false
    },
    {
      "hash": "0xa93d99941dc7b9b21a96b8b722e02045178032fd074a32bdda3fbacee49b38d1",
      "transactionType": "CALL",
      "contractName": "BuildingS",
      "contractAddress": "0xdeE97420D143b40433074dC15a08e86820f67fE2",
      "function": "toTheTop(uint256)",
      "arguments": [
        "5"
      ],
      "transaction": {
        "type": "0x02",
        "from": "0x6117aac3b7e3d53f0a3009e70f5ecf73f7c9af02",
        "to": "0xdee97420d143b40433074dc15a08e86820f67fe2",
        "gas": "0x1a0f7",
        "value": "0x0",
        "data": "0x4dfb2c1c0000000000000000000000000000000000000000000000000000000000000005",
        "nonce": "0x76",
        "accessList": []
      },
      "additionalContracts": [],
      "isFixedGasLimit": false
    }
  ],
  "receipts": [
    {
      "transactionHash": "0xe02ba52d356d178253caeafdd6d0dd7f0e17c7a4dc948acf452f323d6b3a63a4",
      "transactionIndex": "0xd",
      "blockHash": "0x7b721cf2d6fa1ab6b31c99e3a671189edeeefefa32d7ba0fcddbb07119a2dd06",
      "blockNumber": "0x42e1ac",
      "from": "0x6117AAc3b7E3D53F0A3009E70F5Ecf73F7C9AF02",
      "to": null,
      "cumulativeGasUsed": "0x2171bd",
      "gasUsed": "0x287c5",
      "contractAddress": "0xdeE97420D143b40433074dC15a08e86820f67fE2",
      "logs": [],
      "status": "0x1",
      "logsBloom": "0x00000000000000000000000000000000000000000000000000000000000000000000000000000000000000000000000000000000000000000000000000000000000000000000000000000000000000000000000000000000000000000000000000000000000000000000000000000000000000000000000000000000000000000000000000000000000000000000000000000000000000000000000000000000000000000000000000000000000000000000000000000000000000000000000000000000000000000000000000000000000000000000000000000000000000000000000000000000000000000000000000000000000000000000000000000000",
      "type": "0x2",
      "effectiveGasPrice": "0x1f1940fc7"
    },
    {
      "transactionHash": "0xa93d99941dc7b9b21a96b8b722e02045178032fd074a32bdda3fbacee49b38d1",
      "transactionIndex": "0xe",
      "blockHash": "0x7b721cf2d6fa1ab6b31c99e3a671189edeeefefa32d7ba0fcddbb07119a2dd06",
      "blockNumber": "0x42e1ac",
      "from": "0x6117AAc3b7E3D53F0A3009E70F5Ecf73F7C9AF02",
      "to": "0xdeE97420D143b40433074dC15a08e86820f67fE2",
      "cumulativeGasUsed": "0x228ed8",
      "gasUsed": "0x11d1b",
      "contractAddress": null,
      "logs": [],
      "status": "0x1",
      "logsBloom": "0x00000000000000000000000000000000000000000000000000000000000000000000000000000000000000000000000000000000000000000000000000000000000000000000000000000000000000000000000000000000000000000000000000000000000000000000000000000000000000000000000000000000000000000000000000000000000000000000000000000000000000000000000000000000000000000000000000000000000000000000000000000000000000000000000000000000000000000000000000000000000000000000000000000000000000000000000000000000000000000000000000000000000000000000000000000000",
      "type": "0x2",
      "effectiveGasPrice": "0x1f1940fc7"
    }
  ],
  "libraries": [],
  "pending": [],
  "returns": {},
  "timestamp": 1695923115,
  "chain": 11155111,
  "multi": false,
  "commit": "4788ff0"
}